{
  "contractName": "Lottery",
  "abi": [
    {
      "inputs": [],
      "stateMutability": "nonpayable",
      "type": "constructor"
    },
    {
      "inputs": [
        {
          "internalType": "uint256",
          "name": "",
          "type": "uint256"
        }
      ],
      "name": "lotteryHistory",
      "outputs": [
        {
          "internalType": "address payable",
          "name": "",
          "type": "address"
        }
      ],
      "stateMutability": "view",
      "type": "function"
    },
    {
      "inputs": [],
      "name": "lotteryId",
      "outputs": [
        {
          "internalType": "uint256",
          "name": "",
          "type": "uint256"
        }
      ],
      "stateMutability": "view",
      "type": "function"
    },
    {
      "inputs": [],
      "name": "owner",
      "outputs": [
        {
          "internalType": "address",
          "name": "",
          "type": "address"
        }
      ],
      "stateMutability": "view",
      "type": "function"
    },
    {
      "inputs": [
        {
          "internalType": "uint256",
          "name": "",
          "type": "uint256"
        }
      ],
      "name": "players",
      "outputs": [
        {
          "internalType": "address",
          "name": "",
          "type": "address"
        }
      ],
      "stateMutability": "view",
      "type": "function"
    },
    {
      "inputs": [],
      "name": "getBalance",
      "outputs": [
        {
          "internalType": "uint256",
          "name": "_balance",
          "type": "uint256"
        }
      ],
      "stateMutability": "view",
      "type": "function"
    },
    {
      "inputs": [
        {
          "internalType": "uint256",
          "name": "_id",
          "type": "uint256"
        }
      ],
      "name": "getWinnerByLotteryId",
      "outputs": [
        {
          "internalType": "address payable",
          "name": "_winner",
          "type": "address"
        }
      ],
      "stateMutability": "view",
      "type": "function"
    },
    {
      "inputs": [],
      "name": "enter",
      "outputs": [],
      "stateMutability": "payable",
      "type": "function"
    },
    {
      "inputs": [],
      "name": "getRandomNumber",
      "outputs": [
        {
          "internalType": "uint256",
          "name": "_randomNunber",
          "type": "uint256"
        }
      ],
      "stateMutability": "view",
      "type": "function"
    },
    {
      "inputs": [],
      "name": "pickWinner",
      "outputs": [],
      "stateMutability": "nonpayable",
      "type": "function"
    }
  ],
  "bytecode": "0x608060405234801561001057600080fd5b50336000806101000a81548173ffffffffffffffffffffffffffffffffffffffff021916908373ffffffffffffffffffffffffffffffffffffffff1602179055506001600281905550610c99806100686000396000f3fe6080604052600436106100865760003560e01c8063992f7db311610059578063992f7db314610135578063dbdff2c114610172578063e580f47b1461019d578063e97dcb62146101c8578063f71d96cb146101d257610086565b806312065fe01461008b5780635d495aea146100b65780636d6fe230146100cd5780638da5cb5b1461010a575b600080fd5b34801561009757600080fd5b506100a061020f565b6040516100ad91906107c0565b60405180910390f35b3480156100c257600080fd5b506100cb6102a6565b005b3480156100d957600080fd5b506100f460048036038101906100ef919061080c565b61052a565b604051610101919061087a565b60405180910390f35b34801561011657600080fd5b5061011f61055d565b60405161012c91906108b6565b60405180910390f35b34801561014157600080fd5b5061015c6004803603810190610157919061080c565b610581565b604051610169919061087a565b60405180910390f35b34801561017e57600080fd5b506101876105be565b60405161019491906107c0565b60405180910390f35b3480156101a957600080fd5b506101b2610612565b6040516101bf91906107c0565b60405180910390f35b6101d0610618565b005b3480156101de57600080fd5b506101f960048036038101906101f4919061080c565b6106c1565b60405161020691906108b6565b60405180910390f35b60008060009054906101000a900473ffffffffffffffffffffffffffffffffffffffff1673ffffffffffffffffffffffffffffffffffffffff163373ffffffffffffffffffffffffffffffffffffffff16146102a0576040517f08c379a000000000000000000000000000000000000000000000000000000000815260040161029790610954565b60405180910390fd5b47905090565b60008054906101000a900473ffffffffffffffffffffffffffffffffffffffff1673ffffffffffffffffffffffffffffffffffffffff163373ffffffffffffffffffffffffffffffffffffffff1614610334576040517f08c379a000000000000000000000000000000000000000000000000000000000815260040161032b90610954565b60405180910390fd5b60036001805490501161037c576040517f08c379a0000000000000000000000000000000000000000000000000000000008152600401610373906109e6565b60405180910390fd5b600060018054905061038c6105be565b6103969190610a35565b9050600181815481106103ac576103ab610a66565b5b9060005260206000200160009054906101000a900473ffffffffffffffffffffffffffffffffffffffff1673ffffffffffffffffffffffffffffffffffffffff166108fc479081150290604051600060405180830381858888f1935050505015801561041c573d6000803e3d6000fd5b506001818154811061043157610430610a66565b5b9060005260206000200160009054906101000a900473ffffffffffffffffffffffffffffffffffffffff1660036000600254815260200190815260200160002060006101000a81548173ffffffffffffffffffffffffffffffffffffffff021916908373ffffffffffffffffffffffffffffffffffffffff160217905550600260008154809291906104c290610ac4565b9190505550600067ffffffffffffffff8111156104e2576104e1610b0d565b5b6040519080825280602002602001820160405280156105105781602001602082028036833780820191505090505b5060019080519060200190610526929190610700565b5050565b60036020528060005260406000206000915054906101000a900473ffffffffffffffffffffffffffffffffffffffff1681565b60008054906101000a900473ffffffffffffffffffffffffffffffffffffffff1681565b60006003600083815260200190815260200160002060009054906101000a900473ffffffffffffffffffffffffffffffffffffffff169050919050565b60008060009054906101000a900473ffffffffffffffffffffffffffffffffffffffff16426040516020016105f4929190610ba5565b6040516020818303038152906040528051906020012060001c905090565b60025481565b612710341161065c576040517f08c379a000000000000000000000000000000000000000000000000000000000815260040161065390610c43565b60405180910390fd5b6001339080600181540180825580915050600190039060005260206000200160009091909190916101000a81548173ffffffffffffffffffffffffffffffffffffffff021916908373ffffffffffffffffffffffffffffffffffffffff160217905550565b600181815481106106d157600080fd5b906000526020600020016000915054906101000a900473ffffffffffffffffffffffffffffffffffffffff1681565b828054828255906000526020600020908101928215610779579160200282015b828111156107785782518260006101000a81548173ffffffffffffffffffffffffffffffffffffffff021916908373ffffffffffffffffffffffffffffffffffffffff16021790555091602001919060010190610720565b5b509050610786919061078a565b5090565b5b808211156107a357600081600090555060010161078b565b5090565b6000819050919050565b6107ba816107a7565b82525050565b60006020820190506107d560008301846107b1565b92915050565b600080fd5b6107e9816107a7565b81146107f457600080fd5b50565b600081359050610806816107e0565b92915050565b600060208284031215610822576108216107db565b5b6000610830848285016107f7565b91505092915050565b600073ffffffffffffffffffffffffffffffffffffffff82169050919050565b600061086482610839565b9050919050565b61087481610859565b82525050565b600060208201905061088f600083018461086b565b92915050565b60006108a082610839565b9050919050565b6108b081610895565b82525050565b60006020820190506108cb60008301846108a7565b92915050565b600082825260208201905092915050565b7f4f6e6c79206f776e65722063616e2063616c6c20746869732066756e6374696f60008201527f6e2e000000000000000000000000000000000000000000000000000000000000602082015250565b600061093e6022836108d1565b9150610949826108e2565b604082019050919050565b6000602082019050818103600083015261096d81610931565b9050919050565b7f4174206c656173742074686572652073686f756c64206265203320706c61796560008201527f72732e0000000000000000000000000000000000000000000000000000000000602082015250565b60006109d06023836108d1565b91506109db82610974565b604082019050919050565b600060208201905081810360008301526109ff816109c3565b9050919050565b7f4e487b7100000000000000000000000000000000000000000000000000000000600052601260045260246000fd5b6000610a40826107a7565b9150610a4b836107a7565b925082610a5b57610a5a610a06565b5b828206905092915050565b7f4e487b7100000000000000000000000000000000000000000000000000000000600052603260045260246000fd5b7f4e487b7100000000000000000000000000000000000000000000000000000000600052601160045260246000fd5b6000610acf826107a7565b91507fffffffffffffffffffffffffffffffffffffffffffffffffffffffffffffffff821415610b0257610b01610a95565b5b600182019050919050565b7f4e487b7100000000000000000000000000000000000000000000000000000000600052604160045260246000fd5b60008160601b9050919050565b6000610b5482610b3c565b9050919050565b6000610b6682610b49565b9050919050565b610b7e610b7982610895565b610b5b565b82525050565b6000819050919050565b610b9f610b9a826107a7565b610b84565b82525050565b6000610bb18285610b6d565b601482019150610bc18284610b8e565b6020820191508190509392505050565b7f596f75206861766520746f2070617920616c206c65617374203130303030207760008201527f656920746f20656e746572204c6f74746572792e000000000000000000000000602082015250565b6000610c2d6034836108d1565b9150610c3882610bd1565b604082019050919050565b60006020820190508181036000830152610c5c81610c20565b905091905056fea2646970667358221220f1c5e693e8a35c35878412a56260af748ddcaaeb6c538e2751a23a9abbb3c67a64736f6c634300080b0033",
  "immutableReferences": {},
  "source": "//SPDX-License-Identifier:UNLISENCED\r\n\r\npragma solidity 0.8.11;\r\n\r\ncontract Lottery{\r\n    //Variables\r\n    address public owner;\r\n    address[] public players;\r\n    uint public lotteryId;\r\n    mapping(uint => address payable) public lotteryHistory; \r\n\r\n    constructor(){\r\n        owner=msg.sender;\r\n        lotteryId=1;\r\n    }\r\n\r\n    modifier onlyByOwner(){\r\n        require(msg.sender==owner,\"Only owner can call this function.\");\r\n        _;\r\n    }\r\n\r\n    function getBalance() public view onlyByOwner returns(uint _balance){\r\n        return address(this).balance;\r\n    }\r\n\r\n    function getWinnerByLotteryId(uint _id) public view returns(address payable _winner){\r\n        return lotteryHistory[_id];\r\n    }\r\n\r\n\r\n    function enter() public payable{\r\n        require(msg.value > 10000 wei,\"You have to pay al least 10000 wei to enter Lottery.\" );\r\n        //address of players\r\n        players.push(payable(msg.sender));\r\n    }\r\n\r\n    function getRandomNumber() public view returns(uint _randomNunber){\r\n        return uint(keccak256(abi.encodePacked(owner,block.timestamp)));\r\n    }\r\n\r\n    function pickWinner() public onlyByOwner{\r\n        require(players.length > 3,\"At least there should be 3 players.\");\r\n        uint index=getRandomNumber() % players.length;\r\n        payable(players[index]).transfer(address(this).balance);\r\n\r\n        lotteryHistory[lotteryId]=payable(players[index]);\r\n        lotteryId++;\r\n\r\n        //reset the players array\r\n        players=new address payable [](0);\r\n    }\r\n\r\n\r\n}",
  "sourcePath": "C:\\Users\\ACT\\Desktop\\react-VLottery\\smart_contract\\contracts\\Lottery.sol",
  "compiler": {
    "name": "solc",
    "version": "0.8.11+commit.d7f03943.Emscripten.clang"
  },
  "schemaVersion": "3.4.4",
  "updatedAt": "2022-02-11T09:03:34.365Z",
  "devdoc": {
    "kind": "dev",
    "methods": {},
    "version": 1
  },
  "userdoc": {
    "kind": "user",
    "methods": {},
    "version": 1
  }
}