{
  "contractName": "Lottery",
  "abi": [
    {
      "inputs": [],
      "stateMutability": "nonpayable",
      "type": "constructor"
    },
    {
      "inputs": [
        {
          "internalType": "uint256",
          "name": "",
          "type": "uint256"
        }
      ],
      "name": "lotteryHistory",
      "outputs": [
        {
          "internalType": "address payable",
          "name": "",
          "type": "address"
        }
      ],
      "stateMutability": "view",
      "type": "function",
      "constant": true
    },
    {
      "inputs": [],
      "name": "lotteryId",
      "outputs": [
        {
          "internalType": "uint256",
          "name": "",
          "type": "uint256"
        }
      ],
      "stateMutability": "view",
      "type": "function",
      "constant": true
    },
    {
      "inputs": [],
      "name": "owner",
      "outputs": [
        {
          "internalType": "address",
          "name": "",
          "type": "address"
        }
      ],
      "stateMutability": "view",
      "type": "function",
      "constant": true
    },
    {
      "inputs": [
        {
          "internalType": "uint256",
          "name": "",
          "type": "uint256"
        }
      ],
      "name": "players",
      "outputs": [
        {
          "internalType": "address",
          "name": "",
          "type": "address"
        }
      ],
      "stateMutability": "view",
      "type": "function",
      "constant": true
    },
    {
      "inputs": [],
      "name": "getBalance",
      "outputs": [
        {
          "internalType": "uint256",
          "name": "_balance",
          "type": "uint256"
        }
      ],
      "stateMutability": "view",
      "type": "function",
      "constant": true
    },
    {
      "inputs": [
        {
          "internalType": "uint256",
          "name": "_id",
          "type": "uint256"
        }
      ],
      "name": "getWinnerByLotteryId",
      "outputs": [
        {
          "internalType": "address payable",
          "name": "_winner",
          "type": "address"
        }
      ],
      "stateMutability": "view",
      "type": "function",
      "constant": true
    },
    {
      "inputs": [],
      "name": "enter",
      "outputs": [],
      "stateMutability": "payable",
      "type": "function",
      "payable": true
    },
    {
      "inputs": [],
      "name": "getRandomNumber",
      "outputs": [
        {
          "internalType": "uint256",
          "name": "_randomNunber",
          "type": "uint256"
        }
      ],
      "stateMutability": "view",
      "type": "function",
      "constant": true
    },
    {
      "inputs": [],
      "name": "getPlayers",
      "outputs": [
        {
          "internalType": "address[]",
          "name": "",
          "type": "address[]"
        }
      ],
      "stateMutability": "view",
      "type": "function",
      "constant": true
    },
    {
      "inputs": [],
      "name": "pickWinner",
      "outputs": [],
      "stateMutability": "nonpayable",
      "type": "function"
    }
  ],
  "bytecode": "0x608060405234801561001057600080fd5b50336000806101000a81548173ffffffffffffffffffffffffffffffffffffffff021916908373ffffffffffffffffffffffffffffffffffffffff1602179055506001600281905550610e3d806100686000396000f3fe6080604052600436106100915760003560e01c8063992f7db311610059578063992f7db31461016b578063dbdff2c1146101a8578063e580f47b146101d3578063e97dcb62146101fe578063f71d96cb1461020857610091565b806312065fe0146100965780635d495aea146100c15780636d6fe230146100d85780638b5b9ccc146101155780638da5cb5b14610140575b600080fd5b3480156100a257600080fd5b506100ab610245565b6040516100b89190610884565b60405180910390f35b3480156100cd57600080fd5b506100d66102dc565b005b3480156100e457600080fd5b506100ff60048036038101906100fa91906108d0565b610560565b60405161010c919061093e565b60405180910390f35b34801561012157600080fd5b5061012a610593565b6040516101379190610a29565b60405180910390f35b34801561014c57600080fd5b50610155610621565b6040516101629190610a5a565b60405180910390f35b34801561017757600080fd5b50610192600480360381019061018d91906108d0565b610645565b60405161019f919061093e565b60405180910390f35b3480156101b457600080fd5b506101bd610682565b6040516101ca9190610884565b60405180910390f35b3480156101df57600080fd5b506101e86106d6565b6040516101f59190610884565b60405180910390f35b6102066106dc565b005b34801561021457600080fd5b5061022f600480360381019061022a91906108d0565b610785565b60405161023c9190610a5a565b60405180910390f35b60008060009054906101000a900473ffffffffffffffffffffffffffffffffffffffff1673ffffffffffffffffffffffffffffffffffffffff163373ffffffffffffffffffffffffffffffffffffffff16146102d6576040517f08c379a00000000000000000000000000000000000000000000000000000000081526004016102cd90610af8565b60405180910390fd5b47905090565b60008054906101000a900473ffffffffffffffffffffffffffffffffffffffff1673ffffffffffffffffffffffffffffffffffffffff163373ffffffffffffffffffffffffffffffffffffffff161461036a576040517f08c379a000000000000000000000000000000000000000000000000000000000815260040161036190610af8565b60405180910390fd5b6003600180549050116103b2576040517f08c379a00000000000000000000000000000000000000000000000000000000081526004016103a990610b8a565b60405180910390fd5b60006001805490506103c2610682565b6103cc9190610bd9565b9050600181815481106103e2576103e1610c0a565b5b9060005260206000200160009054906101000a900473ffffffffffffffffffffffffffffffffffffffff1673ffffffffffffffffffffffffffffffffffffffff166108fc479081150290604051600060405180830381858888f19350505050158015610452573d6000803e3d6000fd5b506001818154811061046757610466610c0a565b5b9060005260206000200160009054906101000a900473ffffffffffffffffffffffffffffffffffffffff1660036000600254815260200190815260200160002060006101000a81548173ffffffffffffffffffffffffffffffffffffffff021916908373ffffffffffffffffffffffffffffffffffffffff160217905550600260008154809291906104f890610c68565b9190505550600067ffffffffffffffff81111561051857610517610cb1565b5b6040519080825280602002602001820160405280156105465781602001602082028036833780820191505090505b506001908051906020019061055c9291906107c4565b5050565b60036020528060005260406000206000915054906101000a900473ffffffffffffffffffffffffffffffffffffffff1681565b6060600180548060200260200160405190810160405280929190818152602001828054801561061757602002820191906000526020600020905b8160009054906101000a900473ffffffffffffffffffffffffffffffffffffffff1673ffffffffffffffffffffffffffffffffffffffff16815260200190600101908083116105cd575b5050505050905090565b60008054906101000a900473ffffffffffffffffffffffffffffffffffffffff1681565b60006003600083815260200190815260200160002060009054906101000a900473ffffffffffffffffffffffffffffffffffffffff169050919050565b60008060009054906101000a900473ffffffffffffffffffffffffffffffffffffffff16426040516020016106b8929190610d49565b6040516020818303038152906040528051906020012060001c905090565b60025481565b6127103411610720576040517f08c379a000000000000000000000000000000000000000000000000000000000815260040161071790610de7565b60405180910390fd5b6001339080600181540180825580915050600190039060005260206000200160009091909190916101000a81548173ffffffffffffffffffffffffffffffffffffffff021916908373ffffffffffffffffffffffffffffffffffffffff160217905550565b6001818154811061079557600080fd5b906000526020600020016000915054906101000a900473ffffffffffffffffffffffffffffffffffffffff1681565b82805482825590600052602060002090810192821561083d579160200282015b8281111561083c5782518260006101000a81548173ffffffffffffffffffffffffffffffffffffffff021916908373ffffffffffffffffffffffffffffffffffffffff160217905550916020019190600101906107e4565b5b50905061084a919061084e565b5090565b5b8082111561086757600081600090555060010161084f565b5090565b6000819050919050565b61087e8161086b565b82525050565b60006020820190506108996000830184610875565b92915050565b600080fd5b6108ad8161086b565b81146108b857600080fd5b50565b6000813590506108ca816108a4565b92915050565b6000602082840312156108e6576108e561089f565b5b60006108f4848285016108bb565b91505092915050565b600073ffffffffffffffffffffffffffffffffffffffff82169050919050565b6000610928826108fd565b9050919050565b6109388161091d565b82525050565b6000602082019050610953600083018461092f565b92915050565b600081519050919050565b600082825260208201905092915050565b6000819050602082019050919050565b6000610990826108fd565b9050919050565b6109a081610985565b82525050565b60006109b28383610997565b60208301905092915050565b6000602082019050919050565b60006109d682610959565b6109e08185610964565b93506109eb83610975565b8060005b83811015610a1c578151610a0388826109a6565b9750610a0e836109be565b9250506001810190506109ef565b5085935050505092915050565b60006020820190508181036000830152610a4381846109cb565b905092915050565b610a5481610985565b82525050565b6000602082019050610a6f6000830184610a4b565b92915050565b600082825260208201905092915050565b7f4f6e6c79206f776e65722063616e2063616c6c20746869732066756e6374696f60008201527f6e2e000000000000000000000000000000000000000000000000000000000000602082015250565b6000610ae2602283610a75565b9150610aed82610a86565b604082019050919050565b60006020820190508181036000830152610b1181610ad5565b9050919050565b7f4174206c656173742074686572652073686f756c64206265203320706c61796560008201527f72732e0000000000000000000000000000000000000000000000000000000000602082015250565b6000610b74602383610a75565b9150610b7f82610b18565b604082019050919050565b60006020820190508181036000830152610ba381610b67565b9050919050565b7f4e487b7100000000000000000000000000000000000000000000000000000000600052601260045260246000fd5b6000610be48261086b565b9150610bef8361086b565b925082610bff57610bfe610baa565b5b828206905092915050565b7f4e487b7100000000000000000000000000000000000000000000000000000000600052603260045260246000fd5b7f4e487b7100000000000000000000000000000000000000000000000000000000600052601160045260246000fd5b6000610c738261086b565b91507fffffffffffffffffffffffffffffffffffffffffffffffffffffffffffffffff821415610ca657610ca5610c39565b5b600182019050919050565b7f4e487b7100000000000000000000000000000000000000000000000000000000600052604160045260246000fd5b60008160601b9050919050565b6000610cf882610ce0565b9050919050565b6000610d0a82610ced565b9050919050565b610d22610d1d82610985565b610cff565b82525050565b6000819050919050565b610d43610d3e8261086b565b610d28565b82525050565b6000610d558285610d11565b601482019150610d658284610d32565b6020820191508190509392505050565b7f596f75206861766520746f2070617920616c206c65617374203130303030207760008201527f656920746f20656e746572204c6f74746572792e000000000000000000000000602082015250565b6000610dd1603483610a75565b9150610ddc82610d75565b604082019050919050565b60006020820190508181036000830152610e0081610dc4565b905091905056fea2646970667358221220b793eeb4d092573ab7031b548ef4194a460d05b6d6ef20e2de83bfc364e3fa1364736f6c634300080b0033",
  "immutableReferences": {},
  "source": "//SPDX-License-Identifier:UNLISENCED\r\n\r\npragma solidity 0.8.11;\r\n\r\ncontract Lottery{\r\n    //Variables\r\n    address public owner;\r\n    address[] public players;\r\n    uint public lotteryId;\r\n    mapping(uint => address payable) public lotteryHistory; \r\n\r\n    constructor(){\r\n        owner=msg.sender;\r\n        lotteryId=1;\r\n    }\r\n\r\n    modifier onlyByOwner(){\r\n        require(msg.sender==owner,\"Only owner can call this function.\");\r\n        _;\r\n    }\r\n\r\n    function getBalance() public view onlyByOwner returns(uint _balance){\r\n        return address(this).balance;\r\n    }\r\n\r\n    function getWinnerByLotteryId(uint _id) public view returns(address payable _winner){\r\n        return lotteryHistory[_id];\r\n    }\r\n\r\n\r\n    function enter() public payable{\r\n        require(msg.value > 10000 wei,\"You have to pay al least 10000 wei to enter Lottery.\" );\r\n        //address of players\r\n        players.push(payable(msg.sender));\r\n    }\r\n\r\n    function getRandomNumber() public view returns(uint _randomNunber){\r\n        return uint(keccak256(abi.encodePacked(owner,block.timestamp)));\r\n    }\r\n\r\n    function getPlayers() public view returns(address[] memory){\r\n        return players;\r\n    }\r\n\r\n    function pickWinner() public onlyByOwner{\r\n        require(players.length > 3,\"At least there should be 3 players.\");\r\n        uint index=getRandomNumber() % players.length;\r\n        payable(players[index]).transfer(address(this).balance);\r\n\r\n        lotteryHistory[lotteryId]=payable(players[index]);\r\n        lotteryId++;\r\n\r\n        //reset the players array\r\n        players=new address payable [](0);\r\n    }\r\n\r\n\r\n}",
  "sourcePath": "C:\\Users\\ACT\\Desktop\\react-VLottery\\smart_contract\\contracts\\Lottery.sol",
  "compiler": {
    "name": "solc",
    "version": "0.8.11+commit.d7f03943.Emscripten.clang"
  },
  "schemaVersion": "3.4.4",
  "updatedAt": "2022-02-12T03:12:58.662Z",
  "networkType": "ethereum",
  "devdoc": {
    "kind": "dev",
    "methods": {},
    "version": 1
  },
  "userdoc": {
    "kind": "user",
    "methods": {},
    "version": 1
  }
}